:1000000009C00EC08EC00CC00BC00AC009C008C019
:1000100007C006C011241FBECFE9CDBF8DD0A7C039
:10002000EFCF71D085EA9EE00197F1F700C00000A4
:100030006CC06DD085EA9EE00197F1F700C000002A
:1000400068C0CF93DF9367D0C1E08111C0E0D0E5F5
:1000500062D091E0811190E0CC0FC92B89EF90E044
:100060000197F1F700C00000D15011F0CF3F81F7A8
:1000700081E0CF3F09F080E0DF91CF910895CF93E9
:10008000C4E03DD083E294EF0197F1F700C0000097
:1000900038D083E294EF0197F1F700C00000C1501F
:1000A00081F7CF91089581EE94E00197F1F700C0B8
:1000B000000087E087BB88E088BB16B890E29BBF52
:1000C00085BB81EE94E00197F1F700C0000085B791
:1000D000877E806185BF0895F894089585B78F7DE8
:1000E00085BF08957894089585B7806285BF85B7E8
:1000F000806285BF889585B78F7D85BF0895C09A3A
:100100000895C0980895C29A0895C2980895C19A12
:100110000895C198089586B383FB882780F90895D0
:1001200008951F920F920FB60F921124F8940F901A
:100130000FBE0F901F901895B6DFA1DFEADFE5DF55
:1001400078DFDFDFC9DFCADF7CDFC82FE9DFCC2340
:1001500059F067DFD4DF87EA91E60197F1F700C035
:100160000000C0DFC1DFEECF64DFCBDFF4CFF89457
:02017000FFCFBF
:00000001FF
